:100647001206CD7F647E0012060912078012037D11
:0E06570012027D12062812054212059A80EF4B
:10060900EF1FAC0670011E4C60147D027CEFDCFE0E
:0E061900DDFCEF24FFF517EE34FFF51680E24E
:0106270022B0
:04077B007F0CDFFE12
:01077F002257
:0C071F00151615161516151615161516CC
:01072B0022AB
:0606F300C2A68F80D2A513
:0806F9007F027EEFDEFEDFFC54
:0107010022D5
:0A075D00C2A71206F3C2A50206F9B6
:10066500CFCDCFCECCCE12021A7C007D0A12021A53
:04067500ED2430FF41
:0A067900D2A71206F3C2A50206F98B
:1006B700AE07BE0104ED148006BE0209ED243F44D7
:0606C70080FF12075D2216
:1006CD007F3812075D7F0C12075D7F0612075D7F75
:0406DD000102075DB2
:0A076700AC031206B7AF04020679D6
:0605C3008B158A16891752
:1005C9001206B7E4FDAB15AA16A9178D827583002B
:0C05D9001201DBFF60061206790D80E9BC
:0105E50022F3
:0C050F007F0AEA24FFFDE434FFFC7E00BC
:08051B008E1A8F1B8C1C8D1D34
:100523007F017E00E4FBEBC3951DE51C6480F8743A
:0E0533008098500AAC1AAD1B1202080B80E82B
:010541002297
:040683008A178B182F
:100687001206B7AA19EAD39400400D12050FAC174A
:08069700AD181206651A80ED92
:01069F002238
:10042E001206B7C3EA64809480400B7F2B120679C4
:10043E008A328B33800E7F2D120679C3E49BF533FF
:10044E00E49AF532AA31EAD39400400D12050FACAE
:09045E0032AD331206651A80ED7F
:010467002272
:040468008A368B370E
:10046C001206B7AA38EAD3940040297F101205115E
:10047C00AC36AD37CFCDCFCECCCE12021AEF540F57
:10048C00FEC3940AEE5004243080022437FF120677
:04049C00791A80D178
:0104A0002239
:0404A1008A3B8B3CCB
:1004A5001206B7AA3DEAD394004028EA24FFFDE4EA
:1004B50034FFFC7F027E0012051BAC3BAD3CCFCD6B
:1004C500CFCECCCE12021AEF54012430FF1206799A
:0304D5001A80D2B8
:0104D8002201
:0A0771004C696768743A004C780088
:0F070200D291D29212077BC29112077BC2922230
:0C073900C291D29212077BD29102077B82
:0E071100A2009291D29212077BC29202077B45
:0D072C00D29212077BA291C29212077B228B
:0205E6008F166E
:1005E800E4F517E51625E0F5169291D29212077BED
:1005F800C29212077B0517E517C3940840E5020766
:010608002CC5
:10057100E4F517D291F516E51725E0F517D2921299
:10058100077BA291E4334217C29212077B0516E55D
:0805910016C3940840E1AF1706
:01059900223F
:1006E1008F151207027F461205E6AF151205E602C5
:0206F1000739C7
:1004D9001207027F471205E6E4F515120571742526
:1004E9002515F8A607E515B40304D2008002C20059
:1004F9001207110515E515C3940340DF1207397F6B
:06050900057E0002060958
:050780007F010206E10B
:10037D007F011206E17F101206E17FB47E001206A6
:10038D00091204D9752100852522E522FE7C00E4A1
:10039D002526F522EC3EF521FCAD221201217B9A9A
:1003AD007A997999783F12000612015A8E238F247B
:1003BD007BFF7A0779717D017F011205C37BFF7A7F
:1003CD000779787D0C7F011205C3751905AB24AA39
:0803DD00237D077F0102068366
:10059A00C3E5249464E523648094805005C2A0D204
:1005AA00A122D3E5249440E5236480949F4005D298
:0905BA00A0C2A122D2A0D2A1220C
:0C074500543A002E004300483A00250002
:1003E500E4F515750A02209007AF0A050AEF70F6C5
:1003F50012071F12071F12071FE4F50D3090037532
:100405000D01750A02309007AF0A050AEF70F6E58F
:100415000A64016013E51225E0F512E50D421205A7
:0804250015E515C3940840BB66
:01042D0022AC
:10030A00C2907F147E00120609D29012071F1207AC
:10031A001F12071F12071FD290209056750A02203B
:10032A009007AF0A050AEF70F6750A02309007AF18
:10033A000A050AEF70F61203E58512101203E58525
:10034A0012111203E58512081203E5851209120338
:10035A00E585120CD290E508250925102511F50D21
:10036A00B50C0F85100E85110F85081385091485A4
:03037A000C0B2247
:10027D0012030A7BFF7A0779457D017F021205C3C0
:10028D00E513FB7A007519027D037F02120683E5E3
:10029D0014FB7A007519017D067F021206837BFF20
:1002AD007A0779487D057F021205C37BFF7A0779AE
:1002BD004A7D077F021205C37BFF7A07794C7D09C2
:1002CD007F021205C3E50EFB7A007519027D0B7FC7
:1002DD0002120683E50FFB7A007519017D0E7F0270
:1002ED001206837BFF7A0779487D0D7F021205C3C5
:0D02FD007BFF7A07794F7D0F7F020205C35A
:10054200E5132514F515FCE4120126E4FBFA7948BB
:1005520078411200A360074005C2A2D2A322E5158A
:0E056200D3941E4005D2A2C2A322D2A2D2A3DD
:010570002268
:10062800E50E250FFFC394145005C2A4D2B722EFDC
:0E063800D394504005D2A4C2B722D2A4D2B7A8
:010646002291
:1006A0005389F0438901758A18758CFCC28DD28CF0
:0706B000D2A9D2AFC2B922AA
:100003000201D0EC5D046005E8590470030201C6E7
:10001300120191580460F6EC4860F2EC7004FDFEA6
:10002300FF22C860DB2481C85009C39860025006D0
:100033000201CD9850CAF582E9294B4A7005AB827B
:100043000201BC75F0007C1A7880C3EF9BEE9AED39
:1000530099400DC3EF9BFFEE9AFEED99FDE842F048
:10006300DC23ACF0D0E0FFD0E0FED0E0FDAB82209B
:10007300E7101BEB60BAEC2CFCEF33FFEE33FEED25
:1000830033FD0201A8E803F830E705C0F075F0007E
:10009300EF2FFFEE33FEED33FD40B830E7C280AA09
:1000A30074F8CC6480CCC86480C8F58204604FC304
:1000B300EB9FF5F0EA9E42F0E99D42F0E89C45F0A3
:1000C300603C501DE5825FFFE582D313CB5BCBF42D
:1000D3002B5582FB50280ABA002409B90020088056
:1000E3001DE5825BFBE582D313CF5FCFF4C3132FF0
:1000F3005582FF50090EBE00050DBD00010CC3EB78
:100103009FF5F0EA9E42F0E99D42F0E89C45F060DD
:0901130007CC4820E701B3EC22FF
:10011C0075F020800E75F010800575F0087D007E5E
:10012C00007F003392D530D50312026FEC334010B0
:10013C00EF33FFEE33FEED33FDEC33FCD5F0ED2267
:0E014C00E5F0247EA2D513CC92E7CDCEFF22A3
:10015A00EDD2E7CD33EC3392D524814006E4FFFE9D
:10016A00FDFC22FCE4CFCECDCC24E0501174FF80FC
:10017A00EDC3CC13CCCD13CDCE13CECF13CF047099
:07018A00F030D5DE02026F28
:10019100E9D2E7C933E833F892D5EDD2E7CD33ECB4
:0701A10033FC5002B2D5222D
:1001A800EC30E7100FBF000C0EBE00080DBD0004B8
:1001B8000BEB6014A2D5EB13FCED92E7FD2274FF64
:1001C800FCFDFEFF22E480F8A2D574FF13FC7D80BD
:0301D800E480EFD1
:03000000020751A3
:0C075100787FE4F6D8FD75813D02064774
:1001DB00BB010CE58229F582E5833AF583E02250D9
:1001EB0006E92582F8E622BBFE06E92582F8E22223
:0D01FB00E58229F582E5833AF583E493223D
:10020800EF8DF0A4A8F0CF8CF0A428CE8DF0A42E0A
:02021800FE22C4
:10021A00BC000BBE0029EF8DF084FFADF022E4CCC8
:10022A00F875F008EF2FFFEE33FEEC33FCEE9DEC91
:10023A00984005FCEE9DFE0FD5F0E9E4CEFD22EDD7
:10024A00F8F5F0EE8420D21CFEADF075F008EF2F21
:10025A00FFED33FD4007985006D5F0F222C398FD12
:05026A000FD5F0EA22AF
:0E026F00C3E49FFFE49EFEE49DFDE49CFC22A0
:00000001FF
